:020000040000FA
:100000000A128A11DE2FFF1B0D2883137F18831716
:100010000008840A0319FF0A080000308A00040857
:10002000840A82070034013400340A340034643412
:100030000034E83403341034273456347C345434D8
:0C0040003034523400342534693400346C
:1000520074037504031D2E282F2842280130F60050
:10006200720A35280310F60DFF3E031D3328760869
:10007200F700700884008317711C831377088004CB
:1000820056280130F600720A48280310F60DFF3E8A
:10009200031D46287608FF3AF7007008840083178C
:1000A200711C8313770880055628080083120313F6
:1000B2002208F0002308F1002F08F3002E08F200B6
:1000C2000130F4000030F5000A128A1129200A12C8
:1000D2008A110730F9007D30F800F80B6E28F90B11
:1000E2006E28831203132208F0002308F1002F0860
:1000F200F3002E08F2000030F400F5000A128A1113
:1001020029200A128A11C730F8008728F80B86289E
:100112008A288B28080083120313B9003903031DB0
:1001220093289428A2280030B200B3007C08803EB5
:10013200B8003808B4000A128A113F210A128A1143
:10014200B128003083120313B200B3007C08C03E12
:10015200B8003808B4000A128A113F210A128A1123
:10016200013083120313B2000030B3007D08B800DF
:100172003808B4000A128A113F210A128A110800B3
:100182008312031348034904031DC828C928D2282F
:1001920008108814081188110230C8000030C90004
:1001A200FD28023048064904031DD828D928E22830
:1001B20008108810081588110330C8000030C900E3
:1001C200FD28033048064904031DE828E928F228DF
:1001D20008108810081188150430C8000030C900C2
:1001E200FD2808148810081188110130C800003059
:1001F200C900FD28FD28FD280800780879040319A4
:10020200032904293929FD01FD0A132901300310AC
:10021200F80DF90DFF3E031D08290130FC007C0892
:10022200FD071329F91F1629172907291929192941
:1002320079087B02031D1F2978087A02031C2229F0
:1002420023292A297808FA027908031CFB03FB02F6
:100252002A2901300310F90CF80CFF3E031D2B294B
:100262000130FD02031D3629372919293929392977
:100272007B08F9007A08F8003E290800831203136C
:100282002408F0002508F1003108F3003008F200DC
:1002920001303205F40000303305F5000A128A11EC
:1002A20029200A128A11831203133408B50004307C
:1002B2000310B50CFF3E031D59293508B600B701DE
:1002C2003608F8003708F9000A128A1197220A1232
:1002D2008A110A128A1157200A128A1183120313F1
:1002E20034080F39B500B6013508F8003608F900B0
:1002F2000A128A1197220A128A110A128A115720A7
:100302000A128A110800F501F60170087104031936
:100312008B298C29C929F701F70A9B29013003107F
:10032200F00DF10DFF3E031D90290130F400740819
:10033200F7079B29F11F9E299F298F29A129A1290E
:1003420001300310F50DF60DFF3E031DA2297108C1
:100352007302031DAE2970087202031CB129B2296F
:10036200BA297008F2027108031CF303F302751430
:10037200BA2901300310F10CF00CFF3E031DBB291A
:100382000130F702031DC629C729A129C929C92994
:100392007608F1007508F000CE290800FD007D0303
:1003A200031DD429D529E529003083120313B20095
:1003B200B3003808803EFC007C08B4000A128A119F
:1003C2003F210A128A11142A003083120313B20049
:1003D200B3003808C03EFC007C08B4000A128A113F
:1003E2003F210A128A11142A142A0130831203139C
:1003F200B2000030B3003A08FF00390884000A1244
:100402008A1103200A128A11FC007C08B4000A1225
:100412008A113F210A128A11013083120313B9078C
:100422000318BA0A142A831203133A08FF00390880
:1004320084000A128A1103200A128A11003A031D4B
:10044200232A242AF629252A0800F601F11F2A2A3E
:100452002B2A332AF009F109F00A0319F10AF601ED
:10046200F60A332AF31F362A372A412AF209F309F8
:10047200F20A0319F30A0130F4007408F606412A5D
:10048200F701F801700871040319482A492A862ADB
:10049200F501F50A582A01300310F00DF10DFF3E67
:1004A200031D4D2A0130F4007408F507582AF11F84
:1004B2005B2A5C2A4C2A5E2A5E2A01300310F70D61
:1004C200F80DFF3E031D5F2A71087302031D6B2A9C
:1004D20070087202031C6E2A6F2A772A7008F202D1
:1004E2007108031CF303F3027714772A0130031017
:1004F200F10CF00CFF3E031D782A0130F502031DBA
:10050200832A842A5E2A862A862A760803198A2A58
:100512008B2A912AF709F809F70A0319F80A912A8E
:100522007808F1007708F000962A08008312031376
:100532002008F0002108F1002D08F3002C08F20039
:1005420001307805F40000307905F5000A128A11AD
:1005520029200A128A11831203132008F0002108AD
:10056200F1002B08F3002A08F2007908FB00780852
:10057200FA007B0DFB0CFA0C01307A05F400003016
:100582007B05F5000A128A1129200A128A118312A8
:1005920003132008F0002108F1002908F3002808BD
:1005A200F2007908FB007808FA007B0DFB0CFA0CCC
:1005B2007B0DFB0CFA0C01307A05F40000307B0550
:1005C200F5000A128A1129200A128A1183120313D2
:1005D2002008F0002108F1002708F3002608F200A5
:1005E2007908FB007808FA007B0DFB0CFA0C7B0DF6
:1005F200FB0CFA0C7B0DFB0CFA0C01307A05F400B3
:1006020000307B05F5000A128A1129200A128A118C
:10061200080083120313B80038088400831300080B
:10062200A400840A00088403A5003808033E84005D
:100632000008A200840A00088403A3003808063ECA
:1006420084000008A000840A00088403A10038087E
:10065200023E84000008FC00FD017C08B0007D0819
:10066200B1003808053E84000008FC00FD017C084A
:10067200AE007D08AF003808083E84000008FC0088
:10068200FD017C08AC007D08AD003808093E8400FD
:100692000008FC00FD017C08AA007D08AB003808B8
:1006A2000A3E84000008FC00FD017C08A8007D08C9
:1006B200A90038080B3E84000008FC00FD017C08FC
:1006C200A6007D08A7004130FD00EE30FC00FC0BC7
:1006D200682BFD0B682B00000230F8000030F90097
:1006E2000A128A1197220A128A110A128A115720B3
:1006F2000A128A11003083120313B200B3002830A9
:10070200FC007C08B4000A128A113F210A128A11E5
:10071200003083120313B200B3000C30FC007C08DB
:10072200B4000A128A113F210A128A110030831280
:100732000313B200B3000630FC007C08B4000A12B6
:100742008A113F210A128A11003083120313B20068
:10075200B300B401B40A0A128A113F210A128A11A3
:100762000730FD007D30FC00FC0BB52BFD0BB52BDB
:1007720008000A128A11C1200A128A118312031375
:10078200081EC42BC52BFB2B8230F100DD30F0009C
:10079200F00BC92BF10BC92BCE2BCF2B83120313DA
:1007A200081AD42BD52BCF2BE72BE72B4330AE2CBB
:1007B200AE2C3130AE2CAE2C3430AE2CAE2C3730C9
:1007C200AE2CAE2C5F30AE2CAE2CAC2C4908003ACD
:1007D2000319EC2BE32B4808013A0319D72B033AF0
:1007E2000319DA2B013A0319DD2B073A0319E02B1F
:1007F200E32BAC2C881EFE2BFF2B352C8230F10014
:10080200DD30F000F00B032CF10B032C082C092C2B
:1008120083120313881A0E2C0F2C092C212C212C45
:100822003030AE2CAE2C3230AE2CAE2C3530AE2C5D
:10083200AE2C3830AE2CAE2C5F30AE2CAE2CAC2CA5
:100842004908003A0319262C1D2C4808013A0319BD
:10085200112C033A0319142C013A0319172C073AE5
:1008620003191A2C1D2CAC2C081F382C392C6F2C78
:100872008230F100DD30F000F00B3D2CF10B3D2C0D
:10088200422C432C83120313081B482C492C432C63
:100892005B2C5B2C3D30AE2CAE2C3330AE2CAE2C10
:1008A2003630AE2CAE2C3930AE2CAE2C5F30AE2CA6
:1008B200AE2CAC2C4908003A0319602C572C48087E
:1008C200013A03194B2C033A03194E2C013A03192E
:1008D200512C073A0319542C572CAC2C881F722C1C
:1008E200732CAC2C8230F100DD30F000F00B772C51
:1008F200F10B772C7C2C7D2C83120313881B822C0A
:10090200832C7D2C952C952C2B30AE2CAE2C2D309F
:10091200AE2CAE2C7830AE2CAE2C2530AE2CAE2CBC
:100922005F30AE2CAE2CAC2C4908003A03199A2C3D
:10093200912C4808013A0319852C033A0319882C93
:10094200013A03198B2C073A03198E2C912CAC2CEB
:10095200AC2CAC2CAC2C5F30AE2C080083120313F1
:10096200BD003330B5003508B800952D25303E0660
:100972000319BC2CBD2CC92C3E08B5003D088400CF
:100982003508831380000130B5003508BD07952D69
:10099200B901D02CA92DED2CED2C952DED2C01308B
:1009A200B207FF30320784000A128A110D200A12A0
:1009B2008A11BE00B500B6013608003A0319E22CCE
:1009C200952D3508003A0319A92D643A0319ED2C27
:1009D2000D3A0319ED2C952D380884008313000875
:1009E200BB00840A0008BC000230B5003508B80715
:1009F200BC1FFC2CFD2C072D0330B5003508B904B3
:100A0200BB09BC09BB0A0319BC0A072DBE01BE0AF9
:100A120005303E06031D0E2D0F2D112D392D392DBA
:100A22003E08B5003507013E84000A128A110D20E6
:100A32000A128A11B6000A128A110D200A128A11AC
:100A4200B70037083C02031D282D36083B02031865
:100A52002B2D2C2D2E2D392D392D0130B500350899
:100A6200BE0705303E06031D372D382D112D392DB9
:100A72003908033903193E2D3F2D4B2D2D30B5007A
:100A82003D0884003508831380000130B500350825
:100A9200BD074B2D3E08B5003508BA008A2D0A3035
:100AA200F8000030F9003A08B5003507013E84002D
:100AB2000A128A110D200A128A11F0000A128A11F2
:100AC2000D200A128A11F1003C08F3003B08F200E3
:100AD2000A128A1184210A128A117108FB00700815
:100AE200FA000A128A11FE200A128A117808303E90
:100AF20083120313B6003608BE003E08B5003D0857
:100B020084003508831380000130B5003508BD0725
:100B12008A2DFF30B5003508BA073A0A031D922D17
:100B2200932D502D952D952D0130B207FF303207B0
:100B320084000A128A110D200A128A11B5003508A2
:100B4200BE003E08031DA62DA72DB72CA92DA92D49
:100B52003D08840083138001AE2D08008316031321
:100B62008701831203138701F03083160313880071
:100B720083120313880183160317880189015030F9
:100B82000A128A110A230A128A11023083120313EB
:100B9200BF003F08B8000B30B9008030BA00023005
:100BA2000A128A11CF210A128A110D3083120313FD
:100BB200C100AF30C000B530BF00BF0BDE2DC00B8F
:100BC200DE2DC10BDE2DE52D0A128A15C3270A126E
:100BD2008A1183120313CA01EE2D0A128A11BA2353
:100BE2000A128A1183120313BF003F08CF0030306C
:100BF2004F02031CFD2DFE2D732E3A304F020318B7
:100C0200032E042E732E42084304031D092E0A2EBE
:100C12003E2E4E08F1004D08F0000A30F20000307E
:100C2200F3000A128A15D8270A128A1183120313B3
:100C32004F087007BF000030031801307107C00071
:100C42003F08D03ECD0040080318013EFF3ECE00D3
:100C52004A08BF003F08FC004F08C0004008FD00E2
:100C620001300A128A118C200A128A110130831271
:100C72000313BF003F08CA07732E4C08F1004B084C
:100C8200F0000A30F2000030F3000A128A15D82769
:100C92000A128A11831203134F087007BF00003033
:100CA200031801307107C0003F08D03ECB00400856
:100CB2000318013EFF3ECC004A08BF003F08FC007B
:100CC2004F08C0004008FD0001300A128A118C2032
:100CD2000A128A11013083120313BF003F08CA07A8
:100CE200732E732E2B304F06031D782E792E922EE3
:100CF2000130C2000030C3004A08BF003F08FC00B8
:100D02002B30C0004008FD0001300A128A118C20ED
:100D12000A128A11013083120313BF003F08CA0767
:100D2200922E2D304F06031D972E982EB12E023093
:100D3200C2000030C3004A08BF003F08FC002D304B
:100D4200C0004008FD0001300A128A118C200A12EC
:100D52008A11013083120313BF003F08CA07B12E64
:100D620025304F06031DB62EB72ED02E0330C200FB
:100D72000030C3004A08BF003F08FC002530C00015
:100D82004008FD0001300A128A118C200A128A11D1
:100D9200013083120313BF003F08CA07D02E7830F8
:100DA2004F06031DD52ED62EEF2E0430C200003082
:100DB200C3004A08BF003F08FC007830C00040086A
:100DC200FD0001300A128A118C200A128A110130A8
:100DD20083120313BF003F08CA07EF2E3D304F06B0
:100DE200031DF42EF52EC22F8A2F8A2F4B084D0792
:100DF200C4004C0803184C0A4E07C5004A08BF003D
:100E02003F08FC003D30C0004008FD0001300A12DE
:100E12008A118C200A128A11013083120313BF0037
:100E22003F08CA079D2F4B09BF004C09C000BF0AEB
:100E32000319C00A4D083F07C4004E0803184E0AA2
:100E42004007C5004A08BF003F08FC003D30C00013
:100E52004008FD0001300A128A118C200A128A1100
:100E6200013083120313BF003F08CA079D2F4C08AD
:100E7200F1004B08F0004E08F3004D08F2000A1290
:100E82008A1126220A128A11710883120313C500DD
:100E92007008C4004A08BF003F08FC003D30C00093
:100EA2004008FD0001300A128A118C200A128A11B0
:100EB200013083120313BF003F08CA079D2F4E085B
:100EC200F1004D08F0004C08F3004B08F2000A1242
:100ED2008A15D8270A128A11710883120313C500D2
:100EE2007008C4004A08BF003F08FC003D30C00043
:100EF2004008FD0001300A128A118C200A128A1160
:100F0200013083120313BF003F08CA079D2F9D2F94
:100F12009D2F4308003A03198F2F9D2F4208013A53
:100F22000319F72E033A0319142F013A0319382F24
:100F3200073A0319602F9D2F1130BF003F08B200FE
:100F42004508B4004408B300A0300A128A11AF2445
:100F52000A128A11831203134A08BF003F08B8001D
:100F6200A030B9000030BA0002300A128A11CF2133
:100F72000A128A11013083120313BF003F08CA0705
:100F8200C22F43304F06031DC72FC82FEE2D0A1262
:100F92008A15C3270A128A1183120313CA01CD01CB
:100FA200CE01CB01CC01C401C501C201C301EE2DAA
:100FB200EE2DEE2D0A128A11002883135C30FD00FB
:100FC2000F30FE00A330FF004F3084000A128A1552
:100FD200B4270A128A11A0308400EB300A128A1553
:100FE2009B270A128A11423084004F300A128A1556
:0E0FF2009B270A128A1183010A128A11AF2D61
:101F360064008001840A04060319003404069C2FF9
:101F46005F34073400340034073400340134073476
:101F5600003402340334043405347E088A007F08D2
:101F660082000A128A15B0270A128A158000840A8E
:101F760004087D0603190034FF0A0319FE0AB42F6C
:101F8600003083120313B200B300B401B40A0A127C
:101F96008A113F210A128A150730FD007D30FC00A8
:101FA600FC0BD32FFD0BD32F0800F401F501DB2F1B
:101FB600701CDE2FDF2FE52F7208F4070318F50AD1
:101FC6007308F50701300310F20DF30DFF3E031DF4
:101FD600E62F01300310F10CF00CFF3E031DED2F30
:101FE60070087104031DF82FF92FDB2FFA2F7508DF
:0A1FF600F1007408F000FF2F08004E
:02400E00F4FFBD
:00000001FF
